:100000000C94B50D0C94E00D0C94E00D0C94E00DE7
:100010000C94E00D0C94E00D0C94E00D0C94E00DAC
:100020000C94E00D0C94E00D0C94BAD60C9434D5DD
:100030000C94E00D0C94E00D0C94E00D0C94E00D8C
:100040000C94E00D0C9498A80C94E00D0C94E00D29
:100050000C94E00D0C94E00D0C94E89B0C94FDD3F3
:100060000C94E00D0C94E00D0C94E00D0C94E00D5C
:100070000C94E00D0C94E00D0C94E00D0C94E00D4C
:100080000C94E00D0C94E00D0C94E00D0C94E00D3C
:100090000C942BCF0C94E00D084AD73B3BCE016E5D
:1000A00084BCBFFDC12F3D6C74319ABD56833DDACF
:1000B0003D00C77F11BED9E4BB4C3E916BAAAABEDE
:1000C000000000803F05A84CCDB2D44EB93836A907
:1000D000020C50B9918688083CA6AAAA2ABE000044
:1000E00000803F6563686F3A0020746F6F206C6F0B
:1000F0006E6720657874727573696F6E20707265B3
:1001000076656E7465640020636F6C642065787436
:10011000727573696F6E2070726576656E74656452
:10012000002D2D3A2D2D002D2D2D005344000120A2
:10013000000120000120004D323100496E69742E0B
:100140002053442D43617264004E6F2043617264FA
:10015000004D3231004368616E67652053442D4382
:10016000617264005072696E742066726F6D205304
:10017000440053746F70205072696E74005265733E
:10018000756D65205072696E7400506175736520DD
:100190005072696E7400436F6E74726F6C005072AF
:1001A00065706172650054756E6500496E666F20FA
:1001B00073637265656E00052E2E000452656672CB
:1001C000657368004D61696E004D3234004D323305
:1001D000202573004D383420582059205A204500DE
:1001E000526573746F7265204661696C73616665F0
:1001F000004C6F6164206D656D6F72790053746F90
:100200007265206D656D6F7279004D6F74696F6EE8
:100210000054656D7065726174757265004D616939
:100220006E004573746570732F6D6D004573746552
:1002300070732F6D6D005A73746570732F6D6D0040
:100240005A73746570732F6D6D0059737465707394
:100250002F6D6D005973746570732F6D6D00587339
:10026000746570732F6D6D005873746570732F6DA6
:100270006D00412D7265747261637400412D726569
:10028000747261637400416D6178206500416D6135
:1002900078206500416D6178207A00416D61782099
:1002A0007A00416D6178207900416D617820790094
:1002B000416D6178207800416D6178207800565456
:1002C000726176206D696E005654726176206D6998
:1002D0006E00566D696E00566D696E00566D6178E0
:1002E000206500566D6178206500566D6178207A32
:1002F00000566D6178207A00566D6178207900563D
:100300006D6178207900566D6178207800566D61B6
:100310007820780056652D6A65726B0056652D6AE7
:1003200065726B00567A2D6A65726B00567A2D6A7B
:1003300065726B005678792D6A65726B0056787914
:100340002D6A65726B00416363656C004163636590
:100350006C00436F6E74726F6C00507265686561FB
:10036000742041425320436F6E6600507265686589
:10037000617420504C4120436F6E66005049442DFB
:1003800043005049442D43005049442D44005049F6
:10039000442D44005049442D49005049442D490002
:1003A0005049442D50005049442D50002002204611
:1003B0006163740020022046616374002002204DB6
:1003C0006178002002204D6178002002204D696E86
:1003D000002002204D696E004F6666004F6E2000BF
:1003E0004F6666004F6E20004175746F74656D70C6
:1003F0000046616E2073706565640046616E20730F
:10040000706565640042656400426564004E6F7A01
:100410007A6C6533004E6F7A7A6C6533004E6F7A72
:100420007A6C6532004E6F7A7A6C6532004E6F7A64
:100430007A6C65004E6F7A7A6C6500436F6E7472E9
:100440006F6C0053746F7265206D656D6F7279000B
:1004500042656400426564004E6F7A7A6C65004EB6
:100460006F7A7A6C650046616E2073706565640012
:1004700046616E2073706565640054656D706572C9
:1004800061747572650053746F7265206D656D6F70
:1004900072790042656400426564004E6F7A7A6C3E
:1004A00065004E6F7A7A6C650046616E20737065E8
:1004B00065640046616E2073706565640054656D07
:1004C0007065726174757265004D6F766520417854
:1004D000697300436F6F6C646F776E00507265686C
:1004E00065617420414253005072656865617420F3
:1004F000504C4100473238004175746F20486F6D91
:1005000065004D38340044697361626C6520537432
:10051000657070657273004D61696E004D6F766530
:1005200020302E316D6D004D6F766520316D6D0080
:100530004D6F76652031306D6D005072657061725F
:1005400065004578747275646572004D6F7665203C
:100550005A004D6F76652059004D6F766520580022
:100560004D6F7665204178697300457874727564C3
:100570006572005A0059005800466C6F7700466C4F
:100580006F770046616E2073706565640046616E2A
:100590002073706565640042656400426564004EC6
:1005A0006F7A7A6C6533004E6F7A7A6C6533004EE1
:1005B0006F7A7A6C6532004E6F7A7A6C6532004ED3
:1005C0006F7A7A6C65004E6F7A7A6C65005370654D
:1005D0006564005370656564004D61696E00656314
:1005E000686F3A004572726F723A0053544F505020
:1005F00045442E20005072696E7465722073746FCA
:10060000707065642064756520746F206572726F08
:1006100072732E2046697820746865206572726F47
:100620007220616E6420757365204D3939392074EC
:100630006F20726573746172742E202854656D701A
:100640006572617475726520697320726573657473
:100650002E2053657420697420616674657220725F
:10066000657374617274696E6729004B494C4C451F
:10067000442E20005072696E7465722068616C743B
:1006800065642E206B696C6C28292063616C6C6535
:100690006421006F6B00526573656E643A2000221E
:1006A00000556E6B6E6F776E20636F6D6D616E645B
:1006B0003A202200486F74656E64206F6666736529
:1006C00074733A007A5F6D696E3A2000795F6D69E4
:1006D0006E3A2000785F6D696E3A20005A3A0059F0
:1006E0003A0020436F756E7420583A2000453A0056
:1006F0005A3A00593A00583A004649524D57415229
:10070000455F4E414D453A4D61726C696E205631E0
:100710003B20537072696E7465722F6772626C2031
:100720006D617368757020666F722067656E362024
:100730004649524D574152455F55524C3A68747480
:10074000703A2F2F7777772E6D656E64656C2D70FC
:10075000617274732E636F6D2050524F544F434F2C
:100760004C5F56455253494F4E3A312E30204D4141
:100770004348494E455F545950453A4D656E64654E
:100780006C2045585452554445525F434F554E5482
:100790003A330A0042656420646F6E652E00204281
:1007A0003A0020453A00543A0042656420486561A9
:1007B00074696E672E0048656174696E6720646FA6
:1007C0006E652E0020573A0020453A00543A004802
:1007D000656174696E672E2E2E002042403A00201B
:1007E000403A00202F0020423A00202F006F6B205B
:1007F000543A002569206D696E2C202569207365A7
:100800006300456E642066696C65206C69737400D2
:10081000426567696E2066696C65206C6973740057
:100820004E6F206D6F76652E00526573756D696E23
:1008300067207072696E74005761697420666F7208
:1008400020757365722E2E2E00536C6565702E2EEA
:100850002E000000A0400000A0400000803FFFFFED
:10086000FF256920686F757273202569206D696E98
:100870007574657300446F6E65207072696E74697B
:100880006E672066696C650053544F505045442E86
:1008900020005072696E7465722073746F70706599
:1008A000642064756520746F206572726F72732E98
:1008B0002046697820746865206572726F722061C5
:1008C0006E6420757365204D39393920746F20723C
:1008D0006573746172742E202854656D7065726141
:1008E000747572652069732072657365742E205368
:1008F0006574206974206166746572207265737412
:10090000617274696E6729006F6B004E6F204C69CD
:100910006E65204E756D626572207769746820631C
:100920006865636B73756D2C204C617374204C6922
:100930006E653A20004E6F20436865636B73756D7A
:100940002077697468206C696E65206E756D6265CC
:10095000722C204C617374204C696E653A200063E0
:100960006865636B73756D206D69736D6174636821
:100970002C204C617374204C696E653A20004C69E0
:100980006E65204E756D626572206973206E6F749E
:10099000204C617374204C696E65204E756D6265E4
:1009A000722B312C204C617374204C696E653A2097
:1009B000004D31313000446F6E6520736176696E91
:1009C000672066696C652E006F6B004D3239002020
:1009D00020506C616E6E6572427566666572427912
:1009E0007465733A20002046726565204D656D6F11
:1009F00072793A20004A756C20323220323031331D
:100A000000436F6D70696C65643A2000286E6F6EEC
:100A1000652C2064656661756C7420636F6E666911
:100A2000672900207C20417574686F723A20004A63
:100A3000756C20323220323031332032303A343447
:100A40003A313400204C61737420557064617465D0
:100A5000643A2000204C434420483A004C43442050
:100A6000573A00312E302E30004D61726C696E2085
:100A70000020536F667477617265205265736574E8
:100A800000205761746368646F67205265736574F2
:100A9000002042726F776E206F7574205265736507
:100AA00074002045787465726E616C2052657365C0
:100AB0007400506F776572557000737461727400C2
:100AC0002200656E717565696E67202200220065DF
:100AD0006E717565696E672022004572726F723A99
:100AE000004572723A204D415854454D50204245C0
:100AF000440054656D706572617475726520686537
:100B000061746564206265642073776974636865E5
:100B100064206F66662E204D415854454D50207418
:100B20007269676765726564202121004572723AB7
:100B3000204D494E54454D50003A20457874727509
:100B4000646572207377697463686564206F666694
:100B50002E204D494E54454D50207472696767658B
:100B60007265642021004572723A204D4158544507
:100B70004D50003A20457874727564657220737721
:100B8000697463686564206F66662E204D41585411
:100B9000454D502074726967676572656420210055
:100BA000202D20496E76616C6964206578747275B9
:100BB000646572206E756D62657220210070012C73
:100BC0000190012701B0012201C0011D01F00118AF
:100BD000011002130130020E0160020901900204AB
:100BE00001C002FF000003FA004003F5008003F09B
:100BF00000D003EB002004E6007004E100E004DC18
:100C0000004005D700C005D2004006CD00D006C880
:100C1000008007C3003008BE00F008B900C009B466
:100C200000B00AAF00B00BAA00D00CA500000EA0C7
:100C300000500F9B00C01096005012910000148CC1
:100C400000C0158700B0178200B0197D00D01B7856
:100C500000001E730040206E0090226900F02464A2
:100C60000040275F0090295A00E02B5500102E50BD
:100C70000020304B0010324600E033410090353CFC
:100C8000001037370070383200A0392D00B03A28F4
:100C900000A03B2300603C1E00103D1900903D1455
:100CA00000103E0F00703E0A00C03E0500003F00ED
:100CB00000504944204175746F74756E65206669F3
:100CC0006E697368656421205075742074686520AE
:100CD0004B702C204B6920616E64204B6420636F45
:100CE0006E7374616E747320696E746F20436F6EDF
:100CF00066696775726174696F6E2E680050494449
:100D0000204175746F74756E65206661696C6564E9
:100D1000212074696D656F75740020403A006F6B17
:100D200020543A006F6B20423A00504944204175EC
:100D3000746F74756E65206661696C6564212054FA
:100D4000656D706572617475726520746F6F20686F
:100D500069676800204B643A2000204B693A200004
:100D6000204B703A200020436C6173696320504926
:100D70004420002054753A2000204B753A20002072
:100D80006D61783A2000206D696E3A200020643A47
:100D9000200020626961733A200045313A20004505
:100DA000303A20005A3A2000593A2000583A2000A0
:100DB0004D53312C4D53322050696E730A0024F488
:100DC00004D9201BC40C5C0E9804C4095F0265079B
:100DD0007101F405F900FB04B30048048700C10366
:100DE00069005803550003034500BE023A0084021F
:100DF000310053022A002902250004022000E401E8
:100E00001C00C8011900AF011700980114008401EB
:100E10001300710110006101100051010E00430127
:100E20000D0036010B002B010B0020010B001501FA
:100E300009000C01090003010800FB000800F30091
:100E40000800EB000700E4000600DE000600D80002
:100E50000600D2000600CC000500C7000500C20055
:100E60000500BD000400B9000400B5000400B10095
:100E70000400AD000400A9000400A5000300A200C6
:100E800003009F0004009B000300980003009500EE
:100E9000020093000300900003008D0002008B000D
:100EA0000300880002008600020084000300810025
:100EB00002007F0002007D0002007B00020079003A
:100EC0000200770001007600020074000200720048
:100ED0000100710002006F0002006D0001006C0053
:100EE00002006A000100690002006700010066005C
:100EF0000100650001006400020062000100610061
:100F00000100600001005F0002005D0001005C0064
:100F100001005B0001005A00010059000100580067
:100F20000100570001005600010055000100540067
:100F30000100530000005300010052000100510065
:100F40000100500001004F0001004E0000004E0063
:100F500001004D0001004C0001004B0000004B005F
:100F600001004A000100490001004800000048005B
:100F70000100470001004600000046000100450056
:100F80000000450001004400010043000000430050
:100F90000100420000004200010041000000410049
:100FA0000100400001003F0000003F0001003E0042
:100FB00000003E0001003D0000003D0001003C003B
:100FC00000003C0000003C0001003B0000003B0032
:100FD00001003A0000003A00010039000000390029
:100FE0000100380000003800000038000100370020
:100FF0000000370001003600000036000000360017
:10100000010035000000350000003500010034000B
:101010000000340000003400010033000000330001
:1010200000003300010032000000320000003200F6
:1010300001003100000031000000310001003000EB
:10104000000030000000300001002F0000002F00E1
:1010500000002F0000002F0001002E0000002E00D5
:1010600000002E0001002D0000002D0000002D00CA
:1010700000002D0001002C0000002C0000002C00BE
:1010800000002C0001002B0000002B0000002B00B2
:1010900000002B0001002A0000002A0000002A00A6
:1010A00000002A000100290000002900000029009A
:1010B000000029000000290001002800000028008D
:1010C0000000280000002800000028000100270080
:1010D0000000270000002700000027000000270074
:1010E0000100260000002600000026000000260067
:1010F000000026000100250000002500000025005A
:10110000000025000000250000002500010024004B
:10111000000024000000240000002400000024003F
:101120000100230000002300000023000000230032
:101130000000230000002300000023000100220023
:101140000000220000002200000022000000220017
:101150000000220001002100000021000000210009
:1011600000002100000021000000210000002100FB
:1011700001002000000020000000200000002000EE
:1011800000002000000020000000200000002000DF
:1011900001001F0000001F0000001F0000001F00D2
:1011A00000001F0000001F0000001F0001001E00C3
:1011B00000001E0000001E0000001E00000024F4BD
:1011C000D43050C38E20C2A24017828B7011127A85
:1011D000910D816CD90AA861E108C7586607615171
:1011E00043061E4B5D05C145A7041A411104093D84
:1011F0009803713931034036DB0265339102D430F4
:101200005402802E1D02632CEE01752AC501B02800
:10121000A001102781018F2564012B244B01E022BE
:101220003401AC211F018D200D01801FFC00841EA4
:10123000ED00971DDF00B81CD200E61BC600201B86
:10124000BC00641AB200B219A8000A19A0006A18FA
:101250009900D117910040178B00B5168400311604
:101260007E00B31579003A157300C7146F00581447
:101270006A00EE1366008813630025135E00C71230
:101280005B006C12570015125400C111510070110F
:101290004F0021114B00D61049008D104700461019
:1012A000440002104200C00F4000800F3E00420F79
:1012B0003C00060F3B00CB0E3800930E37005C0E4F
:1012C0003500270E3400F30D3200C10D3100900DB2
:1012D0003000600D2E00320D2D00050D2C00D90CB4
:1012E0002B00AE0C2900850C29005C0C2700350C66
:1012F00027000E0C2600E80B2400C40B2400A00BD2
:1013000023007D0B23005A0B2100390B2100180B01
:101310002000F80A1F00D90A1E00BB0A1E009D0A01
:101320001D00800A1D00630A1C00470A1B002C0ACE
:101330001B00110A1A00F7091A00DD091900C40977
:101340001900AB091900920917007B0918006309FD
:1013500017004C09160036091600200916000A0964
:101360001500F5081500E0081400CC081400B808B2
:101370001400A4081400900813007D0812006B08E4
:101380001300580812004608120034081100230800
:1013900011001208110001081100F0071000E00709
:1013A0001000D0071000C0071000B0070F00A10701
:1013B000100091070E0083070F0074070F006507E8
:1013C0000E0057070E0049070E003B070D002E07C1
:1013D0000E0020070D0013070D0006070D00F9068B
:1013E0000C00ED060D00E0060C00D4060C00C8064B
:1013F0000C00BC060C00B0060C00A4060B009906FD
:101400000C008D060B0082060B0077060B006C06A5
:101410000B0061060A0057060B004C060A00420644
:101420000A0038060A002E060A0024060A001A06D8
:101430000A001006090007060A00FD050900F40568
:101440000900EB050900E2050900D9050900D005EE
:101450000900C7050900BE050900B5050800AD056E
:101460000800A50509009C050800940508008C05E6
:101470000800840508007C050800740508006C0558
:101480000700650508005D050700560508004E05C4
:10149000070047050700400508003805070031052B
:1014A00007002A050700230507001C05060016058E
:1014B00007000F0507000805060002050700FB04EA
:1014C0000600F5040700EE040600E8040600E20446
:1014D0000700DB040600D5040600CF040600C9049B
:1014E0000600C3040600BD040600B7040600B104EC
:1014F0000500AC040600A6040600A00405009B0439
:10150000060095040500900406008A040500850481
:101510000500800406007A040500750405007004C7
:1015200005006B04050066040500610405005C0409
:10153000050057040500520405004D040500480449
:101540000500430405003E0404003A040500350488
:101550000500300404002C040500270404002304C3
:1015600005001E0404001A040400160405001104FA
:1015700004000D0404000904050004040400000430
:101580000400FC030400F8030400F4030400F00367
:101590000400EC030400E8030400E4030400E00397
:1015A0000400DC030400D8030400D4030400D003C7
:1015B0000400CC030400C8030300C50303006563F3
:1015C000686F3A00656E6473746F70732068697435
:1015D0003A205A00205A3A00656E6473746F707333
:1015E000206869743A20590020593A00656E647386
:1015F000746F7073206869743A20580020583A005C
:10160000656E6473746F7073206869743A20007C2F
:101610003C3E5E2B3D3F2F5B5D3B2C2A225C0065F0
:1016200063686F3A0048617264636F646564204464
:10163000656661756C742053657474696E67732098
:101640004C6F616465640053746F726564207365E8
:101650007474696E67732072657472696576656407
:1016600000205A0020590020204D323131205800EE
:101670004D617820706F736974696F6E20286D6D8D
:10168000293A00205A0020590020204D32313020C4
:1016900058004D696E20706F736974696F6E2028F1
:1016A0006D6D293A002044002049002020204D3350
:1016B00030312050005049442073657474696E675E
:1016C000733A00205A0020590020204D3230362035
:1016D0005800486F6D65206F666673657420286DCD
:1016E0006D293A00204500205A0020580020420071
:1016F00020540020204D3230352053004164766163
:101700006E636564207661726961626C65733A200C
:10171000533D4D696E20666565647261746520286D
:101720006D6D2F73292C20543D4D696E20747261AC
:1017300076656C20666565647261746520286D6DE0
:101740002F73292C20423D6D696E696D756D207374
:1017500065676D656E742074696D6520286D7329E9
:101760002C20583D6D6178696D756D205859206A3F
:1017700065726B20286D6D2F73292C20205A3D6DCA
:101780006178696D756D205A206A65726B20286DCD
:101790006D2F73292C2020453D6D6178696D756D25
:1017A0002045206A65726B20286D6D2F73290020FB
:1017B000540020204D323034205300416363656C67
:1017C00065726174696F6E3A20533D616363656C45
:1017D00065726174696F6E2C20543D72657472611C
:1017E000637420616363656C65726174696F6E0018
:1017F000204500205A0020590020204D3230312051
:1018000058004D6178696D756D20416363656C6545
:10181000726174696F6E20286D6D2F7332293A00E2
:10182000204500205A0020590020204D323033201E
:1018300058004D6178696D756D20666565647261EB
:1018400074657320286D6D2F73293A0020450020A0
:101850005A0020590020204D393220580053746519
:1018600070732070657220756E69743A00536574E8
:1018700074696E67732053746F726564004D3834F9
:1018800020582059205A2045006563686F3A00436C
:10189000616E6E6F7420656E74657220737562641C
:1018A00069723A20004D3234004D323320257300E6
:1018B0006175746F25692E67004572726F723A0008
:1018C0006572726F722077726974696E6720746FC7
:1018D0002066696C65004E6F7420534420707269F5
:1018E0006E74696E67002F005344207072696E74C5
:1018F000696E67206279746520002E0044656C650E
:1019000074696F6E206661696C65642C2046696C31
:10191000653A200046696C652064656C6574656491
:101920003A002E006F70656E206661696C65642CEC
:101930002046696C653A200057726974696E6720A9
:10194000746F2066696C653A20002E006F70656EBA
:10195000206661696C65642C2046696C653A2000DC
:101960002E006F70656E206661696C65642C204680
:10197000696C653A200046696C652073656C656327
:10198000746564002053697A653A200046696C6585
:10199000206F70656E65643A20002E006F70656E72
:1019A000206661696C65642C2046696C653A20008C
:1019B00053442063617264206F6B006F70656E52D8
:1019C0006F6F74206661696C656400766F6C756D0D
:1019D000652E696E6974206661696C6564005344A4
:1019E00020696E6974206661696C0001290229040E
:1019F0002908291029202940298029012C022C019D
:101A00002602260426082610262026402680264068
:101A10002C802C012302230423082310232023409D
:101A200023802301200220042008201020202040B1
:101A3000208020102C202C012F022F042F082F1083
:101A40002F202F402F802F7EFE7EFD7EFB7EF77E97
:101A5000EF7EDF7EBF7E7F000100008B1A12000246
:101A600000009D1A4300030000E01A04010309046A
:101A7000E41A1802030904FE1A1603030904161BCC
:101A80000C0001C102018036018136120100020200
:101A9000000020C016830400010102030109024373
:101AA00000020100C0320904000001020201000529
:101AB0002400100105240100010424020605240667
:101AC00000010705820308004009040100020A0022
:101AD00000000705030240000007058402400000E3
:101AE0000403090418035400650065006E007300C8
:101AF00079006400750069006E006F000000160335
:101B00005500530042002000530065007200690038
:101B100061006C0000000C0331003200330034001F
:101B200035000000494E46494E4954594E414ECD6C
:101B3000CCCC3D0AD7233C17B7D13877CC2B329584
:101B400095E6241FB14F0A000020410000C8420062
:101B5000401C4620BCBE4CCA1B0E5AAEC59D74002C
:101B6000876FBE7B9CCE65DAB97B11241FBECFEF99
:101B7000D0E2DEBFCDBF13E0A0E0B1E0ECE8F0ECD6
:101B800001E00BBF02C007900D92AA3BB107D9F745
:101B90001BBE11E1AAEBB3E001C01D92A136B10753
:101BA000E1F71BE1C8E6DBE104C02297FE010E94D9
:101BB000ECDFC036D107C9F70E94D5DA0C943AE0C1
:101BC0000C940000A0E0B0E0E8EEFDE00C9409E029
:101BD000EC015B016115710519F0FB0191838083B4
:101BE000F9908F2D90E00E94F0DF892BC9F7FDE27C
:101BF000FF1621F4F990EE24E39405C02BE2F216CF
:101C000009F4F990EE248E0101501040C80164E2FD
:101C10007BE143E050E072D2892BF9F48E010E5F34
:101C20001F4FC80167E27BE145E050E067D2892B96
:101C300019F48E01095F1F4FA114B10419F0F501C9
:101C400011830083E0FC04C070E090E080E813C0E2
:101C500070E090E080E86FEF07C1C8016CE27BE1C3
:101C600043E050E04BD2892B69F4A114B10429F46C
:101C700070E090E080EC6FE7F7C02296F501D18329
:101C8000C083F6CF8824992440E050E060E070E003
:101C9000EF2DE053EA30A0F5F2E0EF2A8E2D90E030
:101CA0009C0128703070E2FE06C0232B79F5089461
:101CB000811C911C2BC0232B19F0089481089108DA
:101CC000DB01CA0112E0880F991FAA1FBB1F1A95DA
:101CD000D1F7480F591F6A1F7B1F440F551F661FFE
:101CE000771F4E0F511D611D711D483929E952079B
:101CF00029E9620729E1720748F084E0E82A06C072
:101D0000EE3F31F4E3FC39C098E0E92AF990C0CF06
:101D1000E53311F0E53189F529912D3219F4E0E12F
:101D2000EE2A05C02B3219F081E090E003C0299122
:101D300082E090E0E22FE053EA3018F0C81BD90BA4
:101D40001CC020E030E0FCE020383F075CF4C90113
:101D5000880F991F880F991F280F391F220F331FD3
:101D60002E0F311DE991E053EA3068F3E4FE03C021
:101D7000309521953F4F820E931ECE2CDD24E1FE3F
:101D800007C0A114B10421F02197F501D183C083CC
:101D9000CB01BA010E9455DC7B018C01F3E0CF221C
:101DA000DD2423E0C216D10421F417FB109517F9A6
:101DB000109557016801C801B70120E030E040E00C
:101DC00050E00E94B5DB882309F44AC097FE0DC09D
:101DD00023E4E22E2BE1F22E9094819491089394C7
:101DE000C0E2D0E000E010E012C09BE5E92E9BE1EC
:101DF000F92EF6CFF7012591359145915491C60101
:101E0000B5010E9495DE5B016C018C1A9D0A8C164F
:101E10009D0684F7D595C7950F5F1F4F06301105B6
:101E200029F08CEF9FEFE80EF91EF1CFC501D60126
:101E30007C018D018C2D880F8D2D881F8F3F51F0D7
:101E4000C601B50120E030E040E050E00E94B5DB83
:101E5000882331F482E290E09093601180935F11C7
:101E60007E2D9F2D802F612F272F392F482F562F02
:101E7000B901CA01CDB7DEB7ECE00C9425E02F9292
:101E80003F925F926F927F928F929F92AF92BF929A
:101E9000CF92DF92EF92FF920F931F93CF93DF9336
:101EA0008C011B01EA016115710519F0FB01918399
:101EB0008083209749F0CE010297839728F020E095
:101EC00030E040E050E0F6C0F801A1908F018A2D8B
:101ED00090E00E94F0DF892BB9F7FDE2AF1631F4F4
:101EE000F801A1908F015524539407C0FBE2AF166F
:101EF00019F4F801A1908F015524209719F0C031F1
:101F0000D105C1F4F0E3AF1679F4F8018081883788
:101F100011F0883549F4F801A1800E5F1F4FF2E0FF
:101F20005F2AC0E1D0E006C0209721F480E3A81624
:101F3000E9F427C0C830D10531F1C930D10524F406
:101F4000C230D10531F50CC0CA30D10589F0C0319D
:101F5000D105F9F4C12CD12CE12CB8E0FB2E28C01E
:101F6000C12CD12CE12CA0E4FA2E22C0CAE0D0E092
:101F7000FCECCF2EFCECDF2EFCECEF2EFCE0FF2E79
:101F800017C0C8E0D0E0C12CD12CE12CE0E1FE2E3E
:101F90000FC09E01442737FD4095542F60E070E04C
:101FA00080E090E80E94ADDFC901DA016C017D019B
:101FB00020E030E040E050E060E03E01882477FC23
:101FC0008094982C70EDB72EBA0CE9E0EB1570F404
:101FD0008A2D81548A3118F499ECB92E06C08A2DC5
:101FE00081568A3150F589EAB82EBA0C8B2D90E0D3
:101FF0008C179D0714F56F3FE1F0C216D306E40677
:10200000F506B0F0CA01B901A40193010E9467DF8F
:102010009B01AC012B0D311D411D511D2130F0E004
:102020003F07F0E04F07F0E85F0710F461E001C000
:102030006FEFF801A1908F01C5CF2114310481F019
:10204000662331F001501040F1011183008308C074
:1020500051FE1AC002501040F1011183008314C0D8
:1020600067FF12C050FC05C02FEF3FEF4FEF5FE757
:1020700004C020E030E040E050E882E290E090933D
:10208000601180935F1116C050FE08C050954095B6
:10209000309521953F4F4F4F5F4F0CC057FF0AC0FF
:1020A00082E290E09093601180935F112FEF3FEFF9
:1020B0004FEF5FE7B901CA01DF91CF911F910F91F7
:1020C000FF90EF90DF90CF90BF90AF909F908F9058
:1020D0007F906F905F903F902F900895FB01DC01FF
:1020E00005900D920020E1F70895FC010590002075
:1020F000E9F7809590958E0F9F1F0895FB01DC01F5
:102100004150504088F08D9181341CF08B350CF497
:10211000805E659161341CF06B350CF4605E861B4B
:10212000611171F3990B0895881BFCCFFB01DC0151
:102130004150504048F005900D920020C9F701C071
:102140001D9241505040E0F70895FB0155915523F1
:10215000A9F0BF01DC014D9145174111E1F759F498
:10216000CD010590002049F04D9140154111C9F372
:10217000FB014111EFCF81E090E001970895FB0151
:10218000DC0104C08D910190801921F44150504030
:10219000C8F7881B990B0895FB01DC0102C0019070
:1021A0000D9241505040D8F70895FB01DC010D908D
:1021B0000020E9F7119701900D920020E1F70895B2
:1021C000FC018191861721F08823D9F7992708957A
:1021D0003197CF010895FB01DC0101900D920020A1
:1021E000E1F70895FB01DC014150504030F08D9142
:1021F0000190801919F40020B9F7881B990B0895F4
:10220000FB01DC014150504048F001900D9200204C
:10221000C9F701C01D9241505040E0F70895AEE06B
:10222000B0E0E5E1F1E10C9411E00D891E898EE04A
:102230008C831A8309838FEF9FE79E838D839E0192
:10224000275E3F4FCE0101966F89788DA9010AD094
:102250002F813885020F131FF80110822E96E4E0BB
:102260000C942DE0ABE0B0E0E8E3F1E10C9403E086
:102270003C012B015A01FC0117821682838181FDEA
:1022800003C06FEF7FEFB9C19AE0892E1E01089459
:10229000211C311CF3012381F20123FD859123FFD1
:1022A00081912F01882309F4A5C1853239F423FDDA
:1022B000859123FF81912F01853221F490E0B301B4
:1022C000B7D1E8CF982FFF24EE249924FFE1FF1522
:1022D000D0F09B3269F09C3228F4903259F093325E
:1022E00091F40EC09D3249F0903369F441E024C06E
:1022F00052E0F52A84E0F82A28C098E0F92A25C09F
:10230000E0E1FE2A22C0F7FC29C0892F80538A30E1
:1023100070F4F6FE05C0989C902C1124980E15C000
:10232000E89CE02C1124E80EF0E2FF2A0EC09E3259
:1023300029F4F6FC5FC140E4F42A07C09C3619F486
:1023400050E8F52A02C0983649F4F20123FD959130
:1023500023FF91912F01992309F0B8CF892F85543C
:10236000833018F08052833038F444E050E0A40EFB
:10237000B51E5FE359830FC0933631F0933779F080
:10238000933509F052C01FC0F5018081898342E076
:1023900050E0A40EB51E610101E010E011C0F5018E
:1023A000C080D180F6FC03C06FEF7FEF02C0692DC3
:1023B00070E042E050E0A40EB51EC6012ED18C01A3
:1023C0005FE7F52213C0F501C080D180F6FC03C0A1
:1023D0006FEF7FEF02C0692D70E042E050E0A40E85
:1023E000B51EC6010FD18C0150E8F52AF3FE06C0D8
:1023F00018C080E290E0B3011BD1EA948E2D90E0EA
:1024000008171907B0F30DC0F601F7FC8591F7FE28
:1024100081916F0190E0B3010BD1E110EA9401507A
:1024200010400115110581F7E2C0943611F099367C
:1024300061F5F7FE08C0F5012081318142815381A9
:1024400084E090E00AC0F501808191819C014427DD
:1024500037FD4095542F82E090E0A80EB91E9FE60C
:10246000F92257FF09C050954095309521953F4F6F
:102470004F4F5F4FE0E8FE2ACA01B901A1012AE0EF
:1024800030E002D1D82ED2183FC0953729F41F2D45
:102490001F7E2AE030E01DC01F2D197F9F3661F09E
:1024A000903720F4983509F0A5C00FC0903739F067
:1024B000983709F09FC004C028E030E00AC01061DE
:1024C00014FD146020E130E004C014FD166020E12A
:1024D00032E017FF08C0F50160817181828193812C
:1024E00044E050E008C0F50180819181BC0180E0AA
:1024F00090E042E050E0A40EB51EA101C5D0D82E58
:10250000D2188FE7F82EF122F6FE0BC05EEFF5220F
:10251000D91438F4F4FE07C0F2FC05C08FEEF8229F
:1025200002C01D2D01C0192DF4FE0DC0FE01ED0DE0
:10253000F11D8081803319F499EEF92208C01F5FE4
:10254000F2FE05C003C08F2D867809F01F5F0F2DA6
:10255000F3FC13C0F0FE0EC01E1510F09D2C0AC037
:102560009D2C9E0C911A1E2D05C080E290E0B301B7
:102570005FD01F5F1E15C8F304C01E1510F4E11ACA
:1025800001C0EE2404FF0EC080E390E0B30150D000
:1025900002FF1BC001FD03C088E790E00EC088E584
:1025A00090E00BC0802F867881F001FF02C08BE2A3
:1025B00001C080E2F7FC8DE290E0B30139D005C0A4
:1025C00080E390E0B30134D09A94D914C8F3DA943C
:1025D000F101ED0DF11D808190E0B30129D0DD20E6
:1025E000B1F705C080E290E0B30122D0EA94EE207A
:1025F000C9F750CEF30166817781CB012B96E2E1DA
:102600000C941FE0FC010590615070400110D8F758
:10261000809590958E0F9F1F0895FC01615070402A
:1026200001900110D8F7809590958E0F9F1F089507
:102630000F931F93CF93DF938C01EB018B8181FF6D
:102640001BC082FF0DC02E813F818C819D81281788
:10265000390764F4E881F9810193F983E88306C0BE
:10266000E885F985802F0995892B31F48E819F812A
:1026700001969F838E8302C00FEF1FEFC801DF9189
:10268000CF911F910F910895FA01AA27283051F197
:10269000203181F1E8946F936E7F6E5F7F4F8F4F93
:1026A0009F4FAF4FB1E03ED0B4E03CD0670F781FF2
:1026B000891F9A1FA11D680F791F8A1F911DA11DD7
:1026C0006A0F711D811D911DA11D20D009F4689410
:1026D0003F912AE0269F11243019305D3193DEF6B8
:1026E000CF010895462F4770405D4193B3E00FD06E
:1026F000C9F7F6CF462F4F70405D4A3318F0495D59
:1027000031FD4052419302D0A9F7EACFB4E0A6953B
:102710009795879577956795BA95C9F7009761055D
:10272000710508959B01AC010A2E069457954795B3
:1027300037952795BA95C9F7620F731F841F951FA8
:10274000A01D08958091C005882399F14091BA0396
:102750005091BB036091BC037091BD038091BE0595
:102760009091BF052EEB33E00E943075882319F15C
:102770004091C1055091C2056091C3057091C40597
:10278000411551056105710591F08091BE0590914B
:10279000BF052EEB33E00E943075882361F0109264
:1027A000C1051092C2051092C3051092C405109283
:1027B000C00581E0089580E00895DF92EF92FF92D6
:1027C0000F931F937B018C01D42E8091BA039091BB
:1027D000BB03A091BC03B091BD038E159F05A0075C
:1027E000B107B9F0AFDF8823E1F08091BE05909189
:1027F000BF05B801A7012EEB33E00E9405768823C0
:1028000081F0E092BA03F092BB030093BC031093F3
:10281000BD03DD2011F481E005C081E08093C00597
:1028200001C080E01F910F91FF90EF90DF9008951D
:102830008F929F92AF92BF92CF92DF92EF92FF92D0
:102840000F931F93CF93DF936C01142F7093BF05E9
:102850006093BE05FC01178A82E090E0A0E0B0E042
:1028600080839183A283B3831092C0051092C10527
:102870001092C2051092C3051092C4058FEF9FEF0E
:10288000AFEFBFEF8093BA039093BB03A093BC0359
:10289000B093BD03442321F48824992454013FC0FC
:1028A000453008F01CC160E070E080E090E040E05E
:1028B00084DF882309F413C1C12FD0E02197FE01E2
:1028C00074E0EE0FFF1F7A95E1F7E254FC4FE254FB
:1028D000FE4F8081EE5BF14090E08F779070892B06
:1028E00009F0FDC0E653FE4F80819181A281B38142
:1028F00084369105A105B10508F4F1C064E0CC0F60
:10290000DD1F6A95E1F7CC57DA4F88809980AA805D
:10291000BB8081149104A104B10409F4E0C0C50195
:10292000B40140E04ADF882309F4D9C08091C9038B
:102930009091CA038050924009F0D1C02091CE03FB
:10294000222309F4CCC08091CC039091CD03892B34
:1029500009F4C5C08091CB03882309F4C0C0F601F7
:10296000228B8091CB038483158661E070E007C0E1
:102970004F5FF60145874150483008F0B0C0F6017E
:102980004585848190E09B01042E02C0220F331FF5
:102990000A94E2F78217930759F72091D4033091F4
:1029A000D5032115310519F040E050E008C0209111
:1029B000E2033091E3034091E4035091E503F60113
:1029C0002583368347835087E090CC03F090CD0376
:1029D00000E010E0E80CF91C0A1D1B1DE38AF48AD4
:1029E000058B168B8091CF039091D003918F808FB0
:1029F0006091CE0370E080E090E00E9467DF6E0D92
:102A00007F1D801F911FF601628F738F848F958FBA
:102A10002091CF033091D00355E0220F331F5A95F8
:102A2000E1F721503E4F232F3327269540E050E019
:102A3000260F371F481F591F26873787408B518B1A
:102A40008091D1039091D203009719F0A0E0B0E0FB
:102A500008C08091DE039091DF03A091E003B09164
:102A6000E10385017401E21AF30A040B150BA801B6
:102A70009701280F391F4A1F5B1FF601058404C008
:102A800056954795379527950A94D2F7218732872F
:102A900043875487253FFFE03F07F0E04F07F0E012
:102AA0005F0720F48CE0F601878B19C0255F3F4F4C
:102AB0004040504018F480E1F6010EC08091EA03D6
:102AC0009091EB03A091EC03B091ED03F601828F9E
:102AD000938FA48FB58F80E2878B81E001C080E067
:102AE000DF91CF911F910F91FF90EF90DF90CF90EA
:102AF000BF90AF909F908F9008956F927F928F922A
:102B00009F92AF92BF92CF92DF92EF92FF920F937C
:102B10001F93CF93DF93EC015A016B0138014901F8
:102B2000423051056105710508F45DC089859A85BB
:102B3000AB85BC850196A11DB11D84179507A6071D
:102B4000B70708F450C08F89803129F4E52EF62E9E
:102B5000072F11270CC0803209F045C07A018B0184
:102B600087E016950795F794E7948A95D1F78B89B6
:102B70009C89AD89BE89E80EF91E0A1F1B1FC8017A
:102B8000B70141E01ADE882371F18F89803149F461
:102B9000F501F070EE0FFF1FE254FC4F718260826E
:102BA0000DC0F501EF77F070EE0FFF1FEE0FFF1F66
:102BB000E254FC4F60827182828293828A898230E1
:102BC00080F08D819E81AF81B885E80EF91E0A1FC5
:102BD0001B1FE092C105F092C2050093C30510933C
:102BE000C40581E001C080E0DF91CF911F910F917A
:102BF000FF90EF90DF90CF90BF90AF909F908F901D
:102C00007F906F900895CF92DF92EF92FF920F9393
:102C10001F93CF93DF93EC017A018B0169018985C2
:102C20009A85AB85BC850196A11DB11D84179507BA
:102C3000A607B70708F452C08F89803129F45527B9
:102C4000412F302F2F2D0CC0803209F047C09A0140
:102C5000AB0167E056954795379527956A95D1F76B
:102C60008B899C89AD89BE89280F391F4A1F5B1F3C
:102C70008091BA039091BB03A091BC03B091BD03B6
:102C8000281739074A075B0731F0CA01B90140E04C
:102C900094DD882319F18F89803159F4F701F070A0
:102CA000EE0FFF1FE254FC4F80819181A0E0B0E065
:102CB0000EC0F701EF77F070EE0FFF1FEE0FFF1F52
:102CC000E254FC4F80819181A281B381BF70F601F3
:102CD00080839183A283B38381E001C080E0DF9190
:102CE000CF911F910F91FF90EF90DF90CF900895BB
:102CF000AF92BF92CF92DF92EF92FF920F931F930A
:102D0000DF93CF9300D000D0CDB7DEB76C017A014E
:102D10008B0182E090E0A0E0B0E0F6018083918337
:102D2000A283B3835E010894A11CB11CC601B80143
:102D3000A701950168DF882339F1C601B801A70111
:102D400000E010E020E030E0D8DE8823E9F0E98000
:102D5000FA800B811C81F6018789803151F4F8EFEC
:102D6000EF16FFEFFF06F0E00F07F0E01F07F0F2AD
:102D700009C088EFE8168FEFF8068FEF08078FE09D
:102D80001807A0F281E001C080E00F900F900F9033
:102D90000F90CF91DF911F910F91FF90EF90DF90F7
:102DA000CF90BF90AF9008954F925F926F927F92B5
:102DB0008F929F92AF92BF92CF92DF92EF92FF924B
:102DC0000F931F93DF93CF9300D000D0CDB7DEB722
:102DD0006C0149835A836B837C833901EE24FF2481
:102DE00087012E010894411C511C812CE2E09E2E8B
:102DF000A12CB12C49815A816B817C81C601920141
:102E000002DF882339F1D501C401F601058404C02D
:102E1000880F991FAA1FBB1F0A94D2F7E80EF91E4C
:102E20000A1F1B1F29813A814B815C818789803170
:102E300031F4285F3F4F40405040E0F205C0285F2A
:102E40003F4F4F4F5F40B0F2F301E082F1820283C7
:102E5000138381E00F900F900F900F90CF91DF912F
:102E60001F910F91FF90EF90DF90CF90BF90AF90A8
:102E70009F908F907F906F905F904F9008952F92CA
:102E80003F924F925F926F927F928F929F92AF92FA
:102E9000BF92CF92DF92EF92FF920F931F93DF9337
:102EA000CF93CDB7DEB72F970FB6F894DEBF0FBE26
:102EB000CDBF1C014A875B876C877D873F872E8744
:102EC000DC0119968D919D910D90BC91A02D0196DC
:102ED000A11DB11D8E839F83A887B987F901008149
:102EE000118122813381011511052105310549F038
:102EF000480159010894811C911CA11CB11C1D8220
:102F000010C0D1018D909D90AD90BC901D828A859E
:102F10009B85AC85BD850197A105B10511F491E0B4
:102F20009D83750164014424552432018E010F5F95
:102F30001F4FF10181859285A385B48548165906F6
:102F40006A067B0608F08CC08E819F81A885B985B2
:102F50008C159D05AE05BF0550F4A2E0CA2ED12CFC
:102F6000E12CF12CF2E08F2E912CA12CB12CC1017F
:102F7000B701A601980147DE882309F471C0898151
:102F80009A81AB81BC81A70196012F5F3F4F4F4FC4
:102F90005F4F0097A105B10519F049015A010DC015
:102FA000281939094A095B098A859B85AC85BD8545
:102FB000281739074A075B0759F00894411C511C30
:102FC000611C711C0894C11CD11CE11CF11CB1CF07
:102FD000C101A601B7010FEF1FEF2FEF3FE08DDD1D
:102FE000882391F43DC02601370108944108510817
:102FF00061087108C101B301A201970186017DDD5D
:10300000882371F1730162018C149D04AE04BF0426
:1030100050F3AE85BF854D915D916D917C914115C9
:1030200051056105710531F0C1019501840165DD2E
:103030008823B1F0EE85FF8580829182A282B382DF
:10304000FD81FF2359F00894811C911CA11CB11C27
:10305000D1018D929D92AD92BC92139781E001C0F7
:1030600080E02F960FB6F894DEBF0FBECDBFCF9194
:10307000DF911F910F91FF90EF90DF90CF90BF9065
:10308000AF909F908F907F906F905F904F903F9008
:103090002F9008953F924F925F926F927F928F92FE
:1030A0009F92AF92BF92CF92DF92EF92FF920F93D7
:1030B0001F93CF93DF9380913506882309F4F6C0E0
:1030C0008090380290903902A0903A02B0903B0272
:1030D0006091930F7091940F882777FD8095982FBA
:1030E0000E9457DC20E030E040E050E40E94DCDA4F
:1030F000A50194010E94B5DB87FDD8C03090070B75
:103100000F2EF0E04F2EF0E05F2EF0E06F2EF0E09B
:103110007F2EF02DCDE4D0E058C0232D30E02C9F41
:10312000F0012D9FF00D3C9FF00D1124EA5CF94F4A
:1031300080819181A281B3810097A105B10581F4BD
:1031400084819581A681B7810097A105B10541F4DD
:1031500080859185A285B3850097A105B10591F180
:103160002C9F60012D9FD00C3C9FD00C112486E336
:1031700096E0C80ED91EF60164857585868597850B
:103180000E9457DC7B018C01F6016089718982897C
:1031900093890E9455DC9B01AC01C801B7010E94D4
:1031A000BCDBF60122A133A144A155A10E9495DE0A
:1031B0007B018C01A30192010E94C3DD181614F457
:1031C000270138013394FFE03F228091060B381627
:1031D00009F0A3CFC301B20120913C0230913D021E
:1031E00040913E0250913F020E9495DE9B01AC014E
:1031F000C501B4010E94DCDA7B018C01A5019401B8
:103200000E94B5DB87FD02C04701580110913402CE
:1032100000913502F0903602E0903702C501B4010A
:10322000212F302F4F2D5E2D0E94C3DD181634F450
:10323000812F902FAF2DBE2D4C015D0140901C0BB6
:1032400050901D0B60901E0B70901F0BC301B201BC
:10325000A50194010E94C3DD1816C4F4C501B40190
:1032600020E037ED43EA5CE30E9495DE7B018C01B0
:10327000C301B20128E431EE4AE75FE30E9495DE24
:10328000A80197010E94DCDA4B015C0180921C0BC3
:1032900090921D0BA0921E0BB0921F0BC501B401A2
:1032A0000E9424DC7093940F6093930FDF91CF9171
:1032B0001F910F91FF90EF90DF90CF90BF90AF9054
:1032C0009F908F907F906F905F904F903F90089568
:1032D000E091B20D9091070B8091060B981711F4B5
:1032E0003E2F30C04091070B242F30E08DE490E05A
:1032F000289FF001299FF00D389FF00D1124E2580E
:10330000F94F308120E06DE470E016C0842F90E02A
:10331000869FF001879FF00D969FF00D1124EA5CC7
:10332000F94F80859185A285B3850097A105B105E8
:1033300009F02F5F4F5F4F708091060B481731F7F0
:10334000222309F4479A509A332321F038BD84B5DB
:10335000806203C0589884B58F7D84BD9BCE8091D8
:10336000060B9091070B891B8F70089560934002A4
:1033700070934102809342029093430208950F9309
:103380001F93CF93DF93C0E0D0E08E010B5E194F07
:10339000FE01E751FA4F60817181828193810E9421
:1033A00055DCFE01E752FA4F208131814281538181
:1033B0000E9495DE0E9429DCF8016083718382837C
:1033C00093832496C031D10501F7DF91CF911F91EE
:1033D0000F910895FC016081718182819381209118
:1033E000E5053091E6054091E7055091E8050E941A
:1033F00095DE0E9465DE60933106709332068093FD
:1034000033069093340681E396E00C943CA8AF9287
:10341000BF92CF92DF92EF92FF920F931F93FC0126
:103420007B016A01590160817181828193812091C0
:10343000D9053091DA054091DB055091DC050E94F9
:1034400095DE0E9465DE05E216E060932506709326
:1034500026068093270690932806F70160817181E4
:10346000828193812091DD053091DE054091DF0559
:103470005091E0050E9495DE0E9465DE609329066A
:1034800070932A0680932B0690932C06F601608198
:103490007181828193812091E1053091E205409113
:1034A000E3055091E4050E9495DE0E9465DE28E068
:1034B000E22EF12CE00EF11E60932D0670932E0685
:1034C00080932F0690933006F5016081718182818F
:1034D00093812091E5053091E6054091E7055091F3
:1034E000E8050E9495DE0E9465DE9801245F3F4F4B
:1034F00060933106709332068093330690933406BE
:10350000C8010C5F1F4FB801A7010E9402A880E00C
:1035100090E0A0E0B0E08093080B9093090BA0939B
:103520000A0BB0930B0B80930C0B90930D0BA09395
:103530000E0BB0930F0B8093100B9093110BA09375
:10354000120BB093130B8093140B9093150BA09355
:10355000160BB093170B8093180B9093190BA09335
:103560001A0BB0931B0B1F910F91FF90EF90DF9000
:10357000CF90BF90AF9008958F929F92AF92BF92DD
:10358000CF92DF92EF92FF920F931F93CF93DF932F
:10359000EC016B01009709F45CC08FA9882309F046
:1035A00058C0EEA0FFA008A519A5FB01B6A0A7A0D2
:1035B00090A481A4C801B7012B2D3A2D492D582D77
:1035C0000E94B5DB88230CF044C0C801B701A801F4
:1035D00097010E9495DE7B018C016AA97BA98CA9C9
:1035E0009DA9905820E030E040E050EC0E9495DE2C
:1035F0002EA53FA548A959A90E9495DE9B01AC01C3
:10360000C801B7010E94DCDA0E9402DF7B018C0155
:103610006B2D7A2D892D982D9701A8010E94B5DB7D
:10362000882324F4EB2CFA2C092D182D6B2D7A2DE0
:10363000892D982D9701A8010E94B5DB882349F0B8
:10364000C701D801F60186A397A3A0A7B1A781E07F
:1036500086ABDF91CF911F910F91FF90EF90DF909C
:10366000CF90BF90AF909F908F900895EF92FF9270
:103670000F931F93CF93DF93F090070B00E010E0C0
:1036800020E030E04DE4E42E11C0FE9CE001112466
:10369000CA5CD94FC901B801AE016EDF8F2D8F5FB3
:1036A000803109F480E0F82E98018E018091060B9C
:1036B000F81659F7C901B80140E050E05DDFDF912D
:1036C000CF911F910F91FF90EF900895AF92BF920D
:1036D000CF92DF92EF92FF920F931F93CF93DF93DE
:1036E000EB018A016115710509F466C041155105A8
:1036F00009F462C0DAA4CBA4BCA4ADA46EA17FA1DE
:1037000088A599A52D2D3C2D4B2D5A2D0E94B5DB5A
:10371000882309F451C08FA9882309F043C0F80118
:10372000E6A0F7A000A511A56D2D7C2D8B2D9A2D5F
:10373000A80197010E94C3DD1816A4F5C801B701BE
:10374000A80197010E9495DE7B018C016AA97BA9E3
:103750008CA99DA9905820E030E040E050EC0E94F8
:1037600095DE2EA53FA548A959A90E9495DE9B018B
:10377000AC01C801B7010E94DCDA0E9402DF7B01C4
:103780008C016D2D7C2D8B2D9A2D9701A8010E9407
:10379000B5DB882324F4ED2CFC2C0B2D1A2DC7014E
:1037A000D80104C08D2D9C2DAB2DBA2D8EA39FA3C7
:1037B000A8A7B9A781E08EABDF91CF911F910F91A0
:1037C000FF90EF90DF90CF90BF90AF900895CF9291
:1037D000DF92EF92FF920F93DF93CF9300D0CDB79C
:1037E000DEB78091060B8FB7F894F090070B8FBF70
:1037F0008091060B90E040968F1991098F70907020
:103800000497FCF00091060B03500F70CC24DD24CC
:1038100040E050E06DE4E62E12C0802F002309F452
:1038200080E1082F01500E9DC00111248A5C994F40
:103830009A838983B6014ADFA601C980DA800F1511
:1038400061F70F900F90CF91DF910F91FF90EF9064
:10385000DF90CF9008951092060B1092070B80E135
:10386000E5E2F6E0DF011D928A95E9F780E090E05D
:10387000A0E0B0E080930C0B90930D0BA0930E0B87
:10388000B0930F0B8093100B9093110BA093120B1E
:10389000B093130B8093140B9093150BA093160BFE
:1038A000B093170B8093180B9093190BA0931A0BDE
:1038B000B0931B0B8093080B9093090BA0930A0BFA
:1038C000B0930B0B08952F923F924F925F926F929D
:1038D0007F928F929F92AF92BF92CF92DF92EF92A0
:1038E000FF920F931F93DF93CF93CDB7DEB7669709
:1038F0000FB6F894DEBF0FBECDBF9E8B8D8B6A01D5
:103900007B0148015901DC01D8966D917D918D9123
:103910009C91DB970E9455DC698B7A8B8B8B9C8BFF
:10392000A70196010E9495DE0E94A2DB0E9429DC7D
:103930006D837E838F83988769897A898B899C8937
:10394000A50194010E9495DE0E94A2DB0E9429DC61
:1039500069837A838B839C832D813E814F81588537
:10396000283731054105510540F448E750E060E053
:1039700070E04D835E836F83788769817A818B8164
:103980009C81683771058105910540F488E790E0D6
:10399000A0E0B0E089839A83AB83BC83AD89BE8904
:1039A000AC5BBF4FAD90BD90CD90DC901397A4540D
:1039B000B040BE8BAD8BDC966D917D918D919C91CD
:1039C000DF970E9455DC6D877E878F87988BC601B5
:1039D000B5010E9457DC1B012C0120E030E040E0E3
:1039E00050E00E94B5DB882321F4E0E070E060E065
:1039F00028C069897A898B899C899B01AC010E94C6
:103A000095DE7B018C016D857E858F8598899B0174
:103A1000AC010E9495DE9B01AC01C801B7010E9478
:103A2000DBDA7B018C01C201B101A20191010E948C
:103A3000DCDA9B01AC01C801B7010E94BCDBE62FB8
:103A4000692F2E2F372F482F562FB901CA010E94F8
:103A5000A2DB0E9424DC3B014C01ED89FE89E05C85
:103A6000FF4F60817181828193810E9455DC69875B
:103A70007A878B879C8766277727CB016A197B0912
:103A80008C099D090E9457DC5B016C0120E030E04D
:103A900040E050E00E94B5DB882321F4E0E070E0D4
:103AA00060E028C069857A858B859C859B01AC0187
:103AB0000E9495DE7B018C0169897A898B899C89BA
:103AC0009B01AC010E9495DE9B01AC01C801B701CE
:103AD0000E94DBDA7B018C01C601B501A6019501CC
:103AE0000E94DCDA9B01AC01C801B7010E94BCDB7B
:103AF000E62F692F2E2F372F482F562FB901CA01D5
:103B00000E9492DCED89FE89A088B188C288D388A2
:103B100086017501E618F708080919090E9424DCD6
:103B2000A8019701261B370B480B590B57FF71C093
:103B3000C201B10120E030E040E050E00E94B5DB7E
:103B4000882321F4E0E070E060E044C0C201B101EC
:103B5000A20191010E94DCDA7B018C01C601B50152
:103B60000E9455DC9B01AC01C801B7010E9495DEA3
:103B70007B018C016D857E858F8598899B01AC01C9
:103B80000E9495DE9B01AC01C801B7010E94DBDAFF
:103B90007B018C0169857A858B859C859B01AC01B5
:103BA0000E9495DE9B01AC01C801B7010E94DCDADE
:103BB0007B018C01C201B10120E030E040E850E41B
:103BC0000E9495DE9B01AC01C801B7010E94BCDBDD
:103BD000E62F692F2E2F372F482F562FB901CA01F4
:103BE0000E94A2DB0E9424DCAC01CB01DA013C0183
:103BF0004D0197FE03C06624772443016A147B04B9
:103C00008C049D0410F03501460120E030E040E0D6
:103C100050E09FB7F8946D897E89645B7F4FDB012C
:103C20008C91AC54B040BE8BAD8B882321F5FD0147
:103C3000648A758A868A978A260D371D481D591D04
:103C400058962D933D934D935C935B972D813E81C8
:103C50004F815885DC962D933D934D935C93DF9770
:103C6000A05CBF4F29813A814B815C812D933D93AC
:103C70004D935C9313979FBF66960FB6F894DEBF83
:103C80000FBECDBFCF91DF911F910F91FF90EF90AD
:103C9000DF90CF90BF90AF909F908F907F906F906C
:103CA0005F904F903F902F9008954F925F927F9238
:103CB0008F929F92AF92BF92CF92DF92EF92FF923C
:103CC0000F931F93CF93DF937090070BC0E0D0E06A
:103CD0007DE4472E512C45C02097A9F18EA9882359
:103CE00061F4849CF001859CF00D949CF00D1124EE
:103CF000EA5CF94F86A9882331F1EAA0FBA00CA168
:103D00001DA16EA17FA188A599A5A80197010E9478
:103D1000BCDB5B016C01849CF001859CF00D949CE4
:103D2000F00D1124EA5CF94F66A177A180A591A559
:103D3000A80197010E94BCDB8B019C01CE01B6015A
:103D4000A501C1DD1EAA739480E1781609F47724D9
:103D5000849CE001859CD00D949CD00D1124CA5CFC
:103D6000D94F872C992487FC90948091060B90E082
:103D70008816990609F0B0CF2097E9F0EAA0FBA0D9
:103D80000CA11DA16EA17FA188A599A5A8019701ED
:103D90000E94BCDB5B016C016DEC7CEC8CE49DE370
:103DA000A80197010E94BCDB8B019C01CE01B601EA
:103DB000A50189DD1EAADF91CF911F910F91FF9080
:103DC000EF90DF90CF90BF90AF909F908F907F90BB
:103DD0005F904F900895FBDC49DC67CF2F923F92B4
:103DE0004F925F926F927F928F929F92AF92BF920B
:103DF000CF92DF92EF92FF920F931F93DF93CF93B7
:103E0000CDB7DEB7C958D0400FB6F894DEBF0FBEAD
:103E1000CDBF5C014B013A012901CA57DF4FE8824F
:103E2000C658D040C957DF4FF882C758D040C8574E
:103E3000DF4F0883C858D040C757DF4F1883C95891
:103E4000D040E496DFAECEAEE4978091060B8F5F54
:103E5000803109F480E0282F332727FD30953DA7D6
:103E60002CA706C00E9482A00E94557C0E94C62EEC
:103E70008091070B90E04CA55DA58417950791F301
:103E8000D5016D917D918D919C912091D9053091B5
:103E9000DA054091DB055091DC050E9495DE0E9419
:103EA00065DEE2966CAF7DAF8EAF9FAFE297F40117
:103EB00060817181828193812091DD053091DE05E1
:103EC0004091DF055091E0050E9495DE0E9465DE7D
:103ED000AE966CAF7DAF8EAF9FAFAE97D3016D91B5
:103EE0007D918D919C912091E1053091E205409169
:103EF000E3055091E4050E9495DE0E9465DEAA96D6
:103F00006CAF7DAF8EAF9FAFAA97F20160817181D8
:103F1000828193812091E5053091E6054091E70586
:103F20005091E8050E9495DE0E9465DEA6966CAF72
:103F30007DAF8EAF9FAFA6978091310690913206EC
:103F4000A0913306B0913406A6962CAD3DAD4EAD92
:103F50005FADA697281739074A075B0709F404C124
:103F6000E091B10DF0E0EE0FFF1FEE0FFF1FEF55D8
:103F7000F04F608171818281938120914002309164
:103F8000410240914202509143020E94B5DB8823D6
:103F90000CF045C0A6964CAD5DAD6EAD7FADA6975D
:103FA0004093310650933206609333067093340683
:103FB000E3EEF0E084918F017E010894E11CF11C96
:103FC0000CC0898385E591E1B70141E050E00E9492
:103FD0004ED90F5F1F4FF8018491882391F7E7E0D6
:103FE000F1E084918F017E010894E11CF11C0CC06A
:103FF000898385E591E1B70141E050E00E944ED907
:104000000F5F1F4FF8018491882391F78AE089831D
:1040100085E591E1B70141E050E00E944ED98091E1
:10402000310690913206A0913306B0913406A696DF
:104030002CAD3DAD4EAD5FADA697281B390B4A0B9D
:104040005B0BCA01B90157FF07C090958095709529
:1040500061957F4F8F4F9F4F0E9457DC5B016C0132
:1040600060917C0270917D0280917E0290917F022E
:104070002091BD0D3091BE0D4091BF0D5091C00DEE
:104080000E94DBDA7B018C016091800270918102D9
:1040900080918202909183022091C10D3091C20DD6
:1040A0004091C30D5091C40D0E94DBDA9B01AC011D
:1040B000C801B7010E94DCDA2091E5053091E605E0
:1040C0004091E7055091E8050E9495DE9B01AC0107
:1040D000C601B5010E94C3DD18160CF045C0A696B6
:1040E0004CAD5DAD6EAD7FADA6974093310650935C
:1040F00032066093330670933406E3EEF0E0849169
:104100008F017E010894E11CF11C0CC0898385E5B8
:1041100091E1B70141E050E00E944ED90F5F1F4F7F
:10412000F8018491882391F7E9EEF0E084918F0102
:104130007E010894E11CF11C0CC0898385E591E1A6
:10414000B70141E050E00E944ED90F5F1F4FF801C8
:104150008491882391F78AE0898385E591E1B7010D
:1041600041E050E00E944ED98091060B282F30E0AC
:10417000A2963FAF2EAFA2978DE490E0289FF0016A
:10418000299FF00D389FF00D1124EA5CF94FE45B94
:10419000FF4F1082EC54F0404091250650912606C6
:1041A0006091270670912806A0964CAF5DAF6EAF68
:1041B0007FAFA097E2968CAD9DADAEADBFADE2975F
:1041C000841B950BA60BB70B6C968CAF9DAFAEAF57
:1041D000BFAF6C9780839183A283B383B7FF0BC07B
:1041E000B095A095909581959F4FAF4FBF4F80831D
:1041F0009183A283B3832091290630912A064091AE
:104200002B0650912C0668962CAF3DAF4EAF5FAF9A
:104210006897AE966CAD7DAD8EAD9FADAE97621BCF
:10422000730B840B950B64966CAF7DAF8EAF9FAF15
:1042300064978DE490E0A296AEADBFADA297A89F23
:10424000F001A99FF00DB89FF00D1124EA5CF94F21
:1042500064962CAD3DAD4EAD5FAD64972483358340
:104260004683578357FF0DC0DA01C901B095A09569
:10427000909581959F4FAF4FBF4F84839583A683C1
:10428000B78340912D0650912E0660912F067091B4
:10429000300660964CAF5DAF6EAF7FAF6097AA9669
:1042A0008CAD9DADAEADBFADAA97841B950BA60B93
:1042B000B70B2C968CAF9DAFAEAFBFAF2C978DE4F4
:1042C00090E0A296AEADBFADA297A89FF001A99FC6
:1042D000F00DB89FF00D1124EA5CF94F2C962CAD2F
:1042E0003DAD4EAD5FAD2C97208731874287538718
:1042F00057FF0DC0DA01C901B095A0959095819541
:104300009F4FAF4FBF4F80879187A287B387209081
:104310003106309032064090330650903406A6960F
:104320004CAD5DAD6EAD7FADA697421953096409E2
:1043300075094EA35FA368A779A760916E0270917B
:104340006F0228967FAF6EAF28976EA17FA188A5D8
:1043500099A597FF07C090958095709561957F4FBF
:104360008F4F9F4F2896AEADBFAD28979D01442734
:1043700037FD4095542F0E9467DF24E630E040E08F
:1043800050E00E94CFDF8DE490E0A2966EAD7FAD4D
:10439000A297689FF001699FF00D789FF00D11249E
:1043A000EA5CF94FDF011C96248711963C93119724
:1043B00012964C93129713965C9360807180828062
:1043C0009380A480B580C680D780E084F184028584
:1043D0001385C901DA018E159F05A007B10714F4F2
:1043E000D801C7018A159B05AC05BD0514F4D6019B
:1043F000C5019C01AD0186159705A805B90514F402
:10440000A40193018DE490E0A296AEADBFADA2975A
:10441000A89FB001A99F700DB89F700D11246A5C10
:10442000794FFB01208B318B428B538B263031052A
:104430004105510510F40C94052BE85BFF4F80916A
:10444000B20D9091B30DAA2797FDA095BA2F808346
:104450009183A283B383DB0190961C92E2962CADEC
:104460003DAD4EAD5FADE297A0968CAD9DADAEADCE
:10447000BFADA097281739074A075B0724F481E0EE
:10448000DB0190968C93AE962CAD3DAD4EAD5FADFD
:10449000AE9768966CAD7DAD8EAD9FAD68972617D3
:1044A00037074807590794F48DE490E0A296AEAD23
:1044B000BFADA297A89FF001A99FF00DB89FF00D86
:1044C0001124EA5CF94F80A1826080A3AA962CADEA
:1044D0003DAD4EAD5FADAA9760966CAD7DAD8EAD36
:1044E0009FAD6097261737074807590794F48DE466
:1044F00090E0A296AEADBFADA297A89FF001A99F94
:10450000F00DB89FF00D1124EA5CF94F80A1846092
:1045100080A3A6962CAD3DAD4EAD5FADA6972215FE
:1045200033054405550594F48DE490E0A2964EAD14
:104530005FADA297489FF001499FF00D589FF00D85
:104540001124EA5CF94F80A1886080A38DE490E09B
:10455000A2966EAD7FADA297689FF001699FF00DA6
:10456000789FF00D1124EA5CF94FE496AEADBFAD33
:10457000E4978C9181A320813181428153812696D9
:104580002CAF3DAF4EAF5FAF2697211531054105EA
:10459000510509F077988DE490E0A2964EAD5FAD9D
:1045A000A297489FF001499FF00D589FF00D1124EC
:1045B000EA5CF94F6480758086809780611471048D
:1045C0008104910409F076988DE490E0A2966EAD96
:1045D0007FADA297689FF001699FF00D789FF00D65
:1045E0001124EA5CF94FA084B184C284D384A1145D
:1045F000B104C104D10409F047988DE490E0A2967B
:10460000AEADBFADA297A89FF001A99FF00DB89FD6
:10461000F00D1124EA5CF94F84859585A685B78550
:104620000097A105B10561F043988C988D98209072
:10463000F9053090FA054090FB055090FC0508C044
:1046400020901106309012064090130650901406E8
:10465000CA57DF4F6881C658D040C957DF4F7881AD
:10466000C758D040C857DF4F8881C858D040C75777
:10467000DF4F9881C958D040A20191010E94B5DB5B
:1046800087FD16C0CA57DF4F8881C658D040C9572A
:10469000DF4F9881C758D040C857DF4FA881C8580E
:1046A000D040C757DF4FB881C958D0401C012D01F9
:1046B0006C966CAD7DAD8EAD9FAD6C970E9457DC56
:1046C0002091D9053091DA054091DB055091DC0548
:1046D0000E94BCDBED966FAFED97EE967FAFEE9745
:1046E000EF968FAFEF97C158DF4F9883CF57D040E9
:1046F000AC01CB01DA018A839B83AC83BD836496D2
:104700006CAD7DAD8EAD9FAD64970E9457DC20915E
:10471000DD053091DE054091DF055091E0050E94F6
:10472000BCDBE9966FAFE997EA967FAFEA97EB9625
:104730008FAFEB97EC969FAFEC97AC01CB01DA0112
:104740008E839F83A887B9872C966CAD7DAD8EAD87
:104750009FAD2C970E9457DC2091E1053091E20536
:104760004091E3055091E4050E94BCDBE5966FAFF4
:10477000E597E6967FAFE697E7968FAFE797E896DF
:104780009FAFE897AC01CB01DA018A879B87AC87A2
:10479000BD876EA17FA188A599A50E9457DC2091B5
:1047A000E5053091E6054091E7055091E8050E9446
:1047B000BCDB7B018C012896EEADFFAD2897BF01D5
:1047C000882777FD8095982F0E9457DC9B01AC01CC
:1047D000C801B7010E9495DE20E030E048EC52E4C9
:1047E0000E94BCDB9B01AC016E877F87888B998B15
:1047F00026966CAD7DAD8EAD9FAD2697663071056A
:10480000810591051CF576E0671671048104910419
:10481000ECF486E0A816B104C104D104BCF48DE424
:1048200090E0A296AEADBFADA297A89FF001A99F60
:10483000F00DB89FF00D1124EA5CF94FDA01C901BF
:10484000BF7786A797A7A0ABB1AB57C0ED962FADAA
:10485000ED97EE963FADEE97EF964FADEF97C158BF
:10486000DF4F5881CF57D040B901CA010E944CDFB9
:104870003B014C01E9962FADE997EA963FADEA97E7
:10488000EB964FADEB97EC965FADEC97B901CA0193
:104890000E944CDF5B016C01E5962FADE597E69633
:1048A0003FADE697E7964FADE797E8965FADE8979F
:1048B000B901CA010E944CDF7B018C01C401B30124
:1048C000A60195010E94DCDAA80197010E94DCDABA
:1048D0000E9402DF2DE430E0A2964EAD5FADA297BC
:1048E000429FF001439FF00D529FF00D1124EA5CAE
:1048F000F94F66A777A780AB91AB8DE490E0A296C5
:104900006EAD7FADA297689FF001699FF00D789F13
:10491000F00D1124EA5CF94F86A597A5A0A9B1A9CD
:1049200022968CAF9DAFAEAFBFAF229760E070E034
:1049300080E89FE322962CAD3DAD4EAD5FAD229752
:104940000E94BCDB9B01AC01C201B1010E9495DE5B
:104950002B013C018091060B9091070BA82FB0E032
:104960005096A91BB109AF70B070BBA7AAA7A2301F
:10497000B1050CF44EC05D01CC24B7FCC094DC2C16
:10498000C601B5010E9457DC20E030E040E051E470
:104990000E94B5DB8823ECF560E074E284E799E4DB
:1049A000A30192010E94BCDB0E9465DE7B018C01A9
:1049B0006091C5057091C6058091C7059091C805A5
:1049C000E616F7060807190720F56E197F09800B10
:1049D000910B660F771F881F991FA60195010E94F2
:1049E000ADDFCA01B9010E9455DC0E9465DEE60E0A
:1049F000F71E081F191FC801B7010E9455DC9B0153
:104A0000AC0160E074E284E799E40E94BCDB2B0116
:104A10003C018DE490E0A296EEADFFADA297E89F39
:104A20008001E99F100DF89F100D11240A5C194FA9
:104A300022966CAD7DAD8EAD9FAD2297A301920104
:104A40000E9495DED80192966D937D938D939C93F1
:104A5000959750966D917D918D919C9153970E9461
:104A600055DCA30192010E9495DE0E94A2DB0E9408
:104A700029DCF80160AF71AF82AF93AFC058DF4F50
:104A80001882C058D040CF57DF4F1882C158D0404D
:104A900020E8222E9FE3392E88249924E2E0F0E0DA
:104AA000EC0FFD1FE80DF91DC301B201208131811A
:104AB000428153810E9495DEE2E1F0E0EC0FFD1FA0
:104AC000E80DF91D60837183828393835B016C0120
:104AD000E894D7F8F401E753FA4FE080F1800281BF
:104AE0001381C601B501A80197010E94C3DD181604
:104AF000CCF4C801B701A60195010E94BCDB6B0193
:104B00007C01C058DF4F6881C058D040CF57DF4F7D
:104B10007881C158D040C101A70196010E94B5DB40
:104B200088236CF4C058DF4F8881C058D040CF57DD
:104B3000DF4F9881C158D040D1016C017D0124E044
:104B400030E0820E931E30E18316910471F0D7019C
:104B5000C601C058DF4FC882C058D040CF57DF4F82
:104B60009883C158D0401D0199CFC701B60120E0FC
:104B700030E040E85FE30E94B5DB88230CF04CC0D6
:104B80008E010E5E1F4F82E2A82EB12CAC0EBD1E10
:104B9000D8016D917D918D919C91A70196010E9404
:104BA00095DEF80161937193819391938F01EA15DA
:104BB000FB0571F78DE490E0A2962EAD3FADA29774
:104BC000289F8001299F100D389F100D11240A5C29
:104BD000194FD80192966D917D918D919C919597E9
:104BE000A70196010E9495DEF80162A373A384A336
:104BF00095A360AD71AD82AD93AD0E9455DCA70168
:104C000096010E9495DE0E9429DCD801D8966D930A
:104C10007D938D939C93DB978DE490E0A296EEAD0F
:104C2000FFADA297E89F8001E99F100DF89F100D3E
:104C300011240A5C194FD80150966D917D918D9188
:104C40009C9153970E9455DCF80126A537A540A9F1
:104C500051A90E94BCDB1B012C01F80180819181CC
:104C6000A281B3810097A105B10549F584819581A1
:104C7000A681B7810097A105B10509F580859185C9
:104C8000A285B3850097A105B105C9F4C201B101A0
:104C900020910106309102064091030650910406CE
:104CA0000E9495DE0E94A2DB0C5B1F4F0E9429DC54
:104CB000D8016D937D938D939C93139771C1C2011D
:104CC000B1012091FD053091FE054091FF05509105
:104CD00000060E9495DE0E94A2DB0E9429DC2DE4E2
:104CE00030E0A296EEADFFADA297E29F6001E39F98
:104CF000D00CF29FD00C112426E336E0C20ED31E56
:104D0000B4E46B2E712C6C0C7D1CD3016D937D93E0
:104D10008D939C9313978090150690901606A09003
:104D20001706B09018060E9455DC7B018C01F60135
:104D300060817181828193810E9457DC9B01AC016B
:104D4000C801B7010E9495DE7B018C01D601509607
:104D50006D917D918D919C9153970E9455DC9B01A3
:104D6000AC01C801B7010E94BCDB7B018C01C5010D
:104D7000B4010E9455DC9B01AC01C801B7010E943F
:104D8000C3DD18162CF4F30180829182A282B382D3
:104D90008090190690901A06A0901B06B0901C06F1
:104DA0008DE490E0A2962EAD3FADA297289F6001C2
:104DB000299FD00C389FD00C112446E356E0C40E36
:104DC000D51EA4E46A2E712C6C0C7D1CD3016D9150
:104DD0007D918D919C910E9455DC7B018C01F601A7
:104DE00064817581868197810E9457DC9B01AC01AB
:104DF000C801B7010E9495DE7B018C01D601509657
:104E00006D917D918D919C9153970E9455DC9B01F2
:104E1000AC01C801B7010E94BCDB7B018C01C5015C
:104E2000B4010E9455DC9B01AC01C801B7010E948E
:104E3000C3DD18162CF4F30180829182A282B38222
:104E40008090210690902206A0902306B090240620
:104E50008DE490E0A2962EAD3FADA297289F600111
:104E6000299FD00C389FD00C112446E356E0C40E85
:104E7000D51EF4E46F2E712C6C0C7D1CD3016D914A
:104E80007D918D919C910E9455DC7B018C01F601F6
:104E900064857585868597850E9457DC9B01AC01EA
:104EA000C801B7010E9495DE7B018C01D6015096A6
:104EB0006D917D918D919C9153970E9455DC9B0142
:104EC000AC01C801B7010E94BCDB7B018C01C501AC
:104ED000B4010E9455DC9B01AC01C801B7010E94DE
:104EE000C3DD18162CF4F30180829182A282B38272
:104EF00080901D0690901E06A0901F06B090200680
:104F00008DE490E0A2962EAD3FADA297289F600160
:104F1000299FD00C389FD00C112446E356E0C40ED4
:104F2000D51EE4E46E2E712C6C0C7D1CD3016D91AA
:104F30007D918D919C910E9455DC7B018C01F60145
:104F400060857185828593850E9457DC9B01AC0149
:104F5000C801B7010E9495DE7B018C01D6015096F5
:104F60006D917D918D919C9153970E9455DC9B0191
:104F7000AC01C801B7010E94BCDB7B018C01C501FB
:104F8000B4010E9455DC9B01AC01C801B7010E942D
:104F9000C3DD18162CF4F30180829182A282B382C1
:104FA0008DE490E0A2962EAD3FADA297289F6001C0
:104FB000299FD00C389FD00C112446E356E0C40E34
:104FC000D51EF601EC5BFF4F608171818281938178
:104FD0000E9455DC7B018C01A20191010E94BCDB87
:104FE000D601D2966D937D938D939C93D597C801EE
:104FF000B7012DEB37E346E051E40E9495DE0E94B5
:1050000024DCF601648F758F868F978F609005067C
:10501000709006068090070690900806C401B301C0
:1050200020E030E040E05FE30E9495DE5B016C0130
:105030002A8D3B8D4C8D5D8D2AAF3BAF4CAF5DAF64
:105040004091090650910A0660910B0670910C067A
:105050004EAB5FAB68AF79AFCB01BA0120E030E077
:1050600040E05FE30E9495DE7B018C016AAD7BAD81
:105070008CAD9DAD9F77A80197010E94C3DD1816E6
:1050800044F4C601B501A80197010E94B5DB88234D
:1050900014F4860175016E8D7F8D88A199A16AAB8C
:1050A0007BAB8CAB9DAB80910D0690910E06A091D1
:1050B0000F06B09110068EA79FA7A8ABB9ABBC0195
:1050C000CD0120E030E040E05FE30E9495DE1B016F
:1050D0002C016AA97BA98CA99DA99F77A2019101A6
:1050E0000E94C3DD181644F4C801B701A201910162
:1050F0000E94B5DB882314F4170128018DE490E0A9
:10510000A296AEADBFADA297A89FF001A99FF00DEA
:10511000B89FF00D1124EA5CF94F22A133A144A1FC
:1051200055A12AA33BA34CA35DA3C201B1010E94D8
:10513000B5DB87FD04C02AA03BA04CA05DA04AA51A
:105140005BA5423051050CF405C15091080BCE57B8
:10515000DF4F5883C258D0406091090BCD57DF4FC5
:105160006883C358D04070910A0BCC57DF4F7883C7
:10517000C458D04080910B0BCB57DF4F8883C55864
:10518000D040652FCD57DF4F7881C358D040CC57E2
:10519000DF4F8881C458D040CB57DF4F9881C55826
:1051A000D04027E137EB41ED58E30E94C3DD1816EC
:1051B0000CF0D0C06A897B898C899D8920910C0B69
:1051C00030910D0B40910E0B50910F0B0E94DBDACA
:1051D0009B01AC010E9495DE7B018C016E897F8969
:1051E000888D998D2091100B3091110B4091120BED
:1051F0005091130B0E94DBDA9B01AC010E9495DEFB
:105200009B01AC01C801B7010E94DCDA0E9402DFF9
:105210007B018C01A40193010E94C3DD18165CF090
:105220000F2EF0E06F2EF0E07F2EF0E88F2EFFE3E0
:105230009F2EF02D08C0C401B301A80197010E9460
:10524000BCDB3B014C016AAD7BAD8CAD9DAD2091CB
:10525000140B3091150B4091160B5091170B0E94B7
:10526000DBDA7B018C01E89417F9C801B7012EA99C
:105270003FA948AD59AD0E94C3DD181694F46EA93C
:105280007FA988AD99ADA80197010E94BCDB5B01A5
:105290006C01C401B301A60195010E94B5DB88230E
:1052A00014F4640153016AA97BA98CA99DA92091DA
:1052B000180B3091190B40911A0B50911B0B0E9447
:1052C000DBDA7B018C01E89417F9C801B7012EA540
:1052D0003FA548A959A90E94C3DD181694F46EA5EC
:1052E0007FA588A999A9A80197010E94BCDB7B0131
:1052F0008C01C601B501A80197010E94B5DB882386
:1053000014F4860175016AA17BA18CA19DA1A8015D
:1053100097010E9495DE7B018C01CE57DF4F68819B
:10532000C258D040CD57DF4F7881C358D040CC57BA
:10533000DF4F8881C458D040CB57DF4F9881C55884
:10534000D040A80197010E94B5DB87FD19C0D801A4
:10535000C70102C0D201C101CE57DF4F8883C258B6
:10536000D040CD57DF4F9883C358D040CC57DF4F44
:10537000A883C458D040CB57DF4FB883C558D0401E
:105380008DE490E0A296AEADBFADA297A89F80013C
:10539000A99F100DB89F100D11240A5C194FCE570C
:1053A000DF4F8881C258D040CD57DF4F9881C35816
:1053B000D040CC57DF4FA881C458D040CB57DF4FE7
:1053C000B881C558D040F80182A793A7A4A7B5A774
:1053D00062A973A984A995A9905820E030E040E023
:1053E00050EC0E9495DED8019E962D913D914D91F5
:1053F0005C91D1970E9495DE2BE037ED43E25BE3B1
:105400000E94DCDA0E9402DFF62EE72ED82EC92E8B
:10541000CE57DF4F6881C258D040CD57DF4F7881DB
:10542000C358D040CC57DF4F8881C458D040CB57A9
:10543000DF4F9881C558D0402F2D3E2D4D2D5C2D2E
:105440000E94B5DB87FD14C0CE57DF4FF882C258EB
:10545000D040CD57DF4FE882C358D040CC57DF4F04
:10546000D882C458D040CB57DF4FC882C558D040EF
:105470008DE490E0A296EEADFFADA297E89F80018B
:10548000E99F100DF89F100D11240A5C194FCE579B
:10549000DF4F8881C258D040CD57DF4F9881C35825
:1054A000D040CC57DF4FA881C458D040CB57DF4FF6
:1054B000B881C558D040F80186A397A3A0A7B1A78B
:1054C00062A173A184A195A12F2D3E2D4D2D5C2DA0
:1054D0000E94B5DB18162CF081E0D801D7968C938A
:1054E00002C0F80117AA8DE490E0A2962EAD3FAD60
:1054F000A297289FF001299FF00D389FF00D1124ED
:10550000EA5CF94F81E086ABACE0BBE0FE0172964D
:1055100080E101900D928150E1F78DE490E0A29638
:105520004EAD5FADA297489F6001499FD00C589F38
:10553000D00C112466E376E0C60ED71ED6019296F3
:10554000ED90FD900D911C919597E092080BF092D3
:10555000090B00930A0B10930B0B96966D917D919E
:105560008D919C919997A80197010E94BCDB4B01FA
:105570005C01C201B101A80197010E94BCDB8B0153
:105580009C01C601B501A4010E94631CBCA5B09397
:10559000060BA6962CAD3DAD4EAD5FADA697209304
:1055A0003106309332064093330650933406AA9660
:1055B0004CAD5DAD6EAD7FADAA9740932D06509377
:1055C0002E0660932F0670933006AE966CAD7DADBF
:1055D0008EAD9FADAE976093290670932A06809397
:1055E0002B0690932C06E2968CAD9DADAEADBFAD73
:1055F000E2978093250690932606A0932706B09302
:1056000028060E94EB1E0E94A4A7C757DF4F0FB6C3
:10561000F894DEBF0FBECDBFCF91DF911F910F91E8
:10562000FF90EF90DF90CF90BF90AF909F908F90C2
:105630007F906F905F904F903F902F9008951092C1
:105640002C0B089560E0309B61E0319B62600FB6E7
:10565000F89420914C1130914D1140914E11509180
:105660004F110FBE8091430B9091440BA091450BBD
:10567000B091460B82179307A407B50710F4329B2D
:1056800064606093410B9091410B91708091410B4C
:1056900081FD92608091470B981729F19130B1F00C
:1056A000913028F0923041F09330E9F40AC0813013
:1056B00079F08230C1F412C0882351F0833099F41C
:1056C0000DC0823029F0813071F408C0833021F49C
:1056D0008091480B8F5F05C0882329F48091480B87
:1056E00081508093480B9093470B08958091410B14
:1056F00090E0969587959695879581700895FC0121
:105700002081822F90E06AE070E00E949ADFCB0156
:105710006AE070E00E949ADF805D8093700B822FB8
:1057200090E06AE070E00E949ADF805D8093710BE8
:105730001092720B80E79BE00895FC0160817181FB
:105740008281938120E030E040E251E40E9495DEC6
:105750000E9424DC9B0177FF02C08DE201C08BE236
:105760008093700B37FF03C0309521953F4FC901DF
:1057700068EE73E00E949ADFCB016AE070E00E945D
:105780009ADF805D8093710BC90164E670E00E942E
:105790009ADFCB016AE070E00E949ADF805D80931F
:1057A000720BC9016AE070E00E949ADFCB016AE0E7
:1057B00070E00E949ADF805D8093730B8EE280938D
:1057C000740BC9016AE070E00E949ADF805D8093EB
:1057D000750B1092760B80E79BE00895EF92FF9295
:1057E0000F931F93FC01608171818281938120E07E
:1057F00030E048EC52E40E9495DE0E9424DC7B01FC
:105800008C0197FD12C020E137E240E050E00E9499
:10581000CFDFCA01B9012AE030E040E050E00E9449
:10582000CFDF605D6093700B03C08DE28093700BDF
:1058300017FF08C010950095F094E094E11CF11C4E
:10584000011D111DC801B70128EE33E040E050E012
:105850000E94CFDFCA01B9012AE030E040E050E009
:105860000E94CFDF605D6093710BC801B70124E631
:1058700030E040E050E00E94CFDFCA01B9012AE0E9
:1058800030E040E050E00E94CFDF605D6093720B3B
:105890008EE28093730BC801B7012AE030E040E04C
:1058A00050E00E94CFDFCA01B9012AE030E040E0B9
:1058B00050E00E94CFDF605D6093740BC801B701B8
:1058C0002AE030E040E050E00E94CFDF605D60936E
:1058D000750B1092760B80E79BE01F910F91FF9064
:1058E000EF900895FC0180819181843691055CF0F0
:1058F00064E670E00E949ADFCB016AE070E00E94EB
:105900009ADF805D01C080E28093700B808191817D
:105910008A3091055CF06AE070E00E949ADFCB016A
:105920006AE070E00E949ADF805D01C080E28093AF
:10593000710B808191816AE070E00E949ADF805D46
:105940008093720B1092730B80E79BE00895DF93B6
:10595000CF9300D0CDB7DEB7FC0160817181828129
:1059600093810E9424DC7A836983CE010196BADF99
:105970000F900F90CF91DF910895FC01808191816C
:105980008436910534F164E670E00E949ADFCB0121
:105990006AE070E00E949ADF805D8093700B8081E6
:1059A00091816AE070E00E949ADFCB016AE070E0CA
:1059B0000E949ADF805D8093710B808191816AE003
:1059C00070E00E949ADF805D8093720B1092730BDF
:1059D00024C08A309105C4F06AE070E00E949ADF2A
:1059E000CB016AE070E00E949ADF805D8093700BCB
:1059F000808191816AE070E00E949ADF805D8093EF
:105A0000710B1092720B09C06AE070E00E949ADF7D
:105A1000805D8093700B1092710B80E79BE008957E
:105A2000EF92FF920F931F93FC01E080F1800281BF
:105A30001381C801B70120E030E040E050E00E944F
:105A4000C3DD18161CF4C801B70103C0C801B701B3
:105A500090580E9424DC7B018C0180E1E81687E2EB
:105A6000F80680E0080780E01807A4F0C801B70135
:105A700020E137E240E050E00E94CFDFCA01B901E7
:105A80002AE030E040E050E00E94CFDF605D6093AC
:105A9000700B0CC080E28093700B98EEE91693E0D7
:105AA000F90690E0090790E01907A4F0C801B701D2
:105AB00028EE33E040E050E00E94CFDFCA01B90198
:105AC0002AE030E040E050E00E94CFDF605D60936C
:105AD000710B08C08093710B94E6E916F10401057F
